{"abi":[{"type":"function","name":"domainSeparator","inputs":[],"outputs":[{"name":"","type":"bytes32","internalType":"bytes32"}],"stateMutability":"view"},{"type":"function","name":"eip712Domain","inputs":[],"outputs":[{"name":"fields","type":"bytes1","internalType":"bytes1"},{"name":"name","type":"string","internalType":"string"},{"name":"version","type":"string","internalType":"string"},{"name":"chainId","type":"uint256","internalType":"uint256"},{"name":"verifyingContract","type":"address","internalType":"address"},{"name":"salt","type":"bytes32","internalType":"bytes32"},{"name":"extensions","type":"uint256[]","internalType":"uint256[]"}],"stateMutability":"view"},{"type":"function","name":"execute","inputs":[{"name":"request","type":"tuple","internalType":"struct BasicForwarder.Request","components":[{"name":"from","type":"address","internalType":"address"},{"name":"target","type":"address","internalType":"address"},{"name":"value","type":"uint256","internalType":"uint256"},{"name":"gas","type":"uint256","internalType":"uint256"},{"name":"nonce","type":"uint256","internalType":"uint256"},{"name":"data","type":"bytes","internalType":"bytes"},{"name":"deadline","type":"uint256","internalType":"uint256"}]},{"name":"signature","type":"bytes","internalType":"bytes"}],"outputs":[{"name":"success","type":"bool","internalType":"bool"}],"stateMutability":"payable"},{"type":"function","name":"getDataHash","inputs":[{"name":"request","type":"tuple","internalType":"struct BasicForwarder.Request","components":[{"name":"from","type":"address","internalType":"address"},{"name":"target","type":"address","internalType":"address"},{"name":"value","type":"uint256","internalType":"uint256"},{"name":"gas","type":"uint256","internalType":"uint256"},{"name":"nonce","type":"uint256","internalType":"uint256"},{"name":"data","type":"bytes","internalType":"bytes"},{"name":"deadline","type":"uint256","internalType":"uint256"}]}],"outputs":[{"name":"","type":"bytes32","internalType":"bytes32"}],"stateMutability":"pure"},{"type":"function","name":"getRequestTypehash","inputs":[],"outputs":[{"name":"","type":"bytes32","internalType":"bytes32"}],"stateMutability":"pure"},{"type":"function","name":"nonces","inputs":[{"name":"","type":"address","internalType":"address"}],"outputs":[{"name":"","type":"uint256","internalType":"uint256"}],"stateMutability":"view"},{"type":"error","name":"ECDSAInvalidSignature","inputs":[]},{"type":"error","name":"ECDSAInvalidSignatureLength","inputs":[{"name":"length","type":"uint256","internalType":"uint256"}]},{"type":"error","name":"ECDSAInvalidSignatureS","inputs":[{"name":"s","type":"bytes32","internalType":"bytes32"}]},{"type":"error","name":"InvalidNonce","inputs":[]},{"type":"error","name":"InvalidSigner","inputs":[]},{"type":"error","name":"InvalidTarget","inputs":[]},{"type":"error","name":"InvalidValue","inputs":[]},{"type":"error","name":"OldRequest","inputs":[]}],"bytecode":{"object":"0x610120604052348015610010575f80fd5b503073ffffffffffffffffffffffffffffffffffffffff16608081815250504660a0818152505060608061004861012b60201b60201c565b6100635761005a61012f60201b60201c565b80925081935050505b5f61007261012b60201b60201c565b610083578280519060200120610087565b5f801b5b90505f61009861012b60201b60201c565b6100a95782805190602001206100ad565b5f801b5b90508160c081815250508060e081815250505f6100ce61012b60201b60201c565b610118576040517f8b73c3c69bb8fe3d512ecc4cf759cc79239f7b179b0ffacaa9a75d522b39400f815283602082015282604082015246606082015230608082015260a081209150505b80610100818152505050505050506101a6565b5f90565b6060806040518060400160405280600e81526020017f4261736963466f7277617264657200000000000000000000000000000000000081525091506040518060400160405280600181526020017f310000000000000000000000000000000000000000000000000000000000000081525090509091565b60805160a05160c05160e0516101005161159f6101ea5f395f818161070a015261076601525f61084e01525f61082b01525f6108bd01525f6108e1015261159f5ff3fe608060405260043610610054575f3560e01c8063014010b71461005857806344d46c8e146100945780637ecebe00146100c457806384b0196e1461010057806384d3a82d14610130578063f698da251461015a575b5f80fd5b348015610063575f80fd5b5061007e60048036038101906100799190610e5e565b610184565b60405161008b9190610ebd565b60405180910390f35b6100ae60048036038101906100a99190610f55565b610202565b6040516100bb9190610fe8565b60405180910390f35b3480156100cf575f80fd5b506100ea60048036038101906100e59190611001565b610314565b6040516100f7919061103b565b60405180910390f35b34801561010b575f80fd5b50610114610328565b60405161012797969594939291906111b4565b60405180910390f35b34801561013b575f80fd5b50610144610373565b6040516101519190610ebd565b60405180910390f35b348015610165575f80fd5b5061016e610399565b60405161017b9190610ebd565b60405180910390f35b5f7ef4342dc5717c026bb2c6c0b7f2bb901ac7e1f5415d0dcb7af4d51a418980d1825f015183602001518460400151856060015186608001518760a00151805190602001208860c001516040516020016101e5989796959493929190611236565b604051602081830303815290604052805190602001209050919050565b5f61020e8484846103a7565b5f80855f0160208101906102229190611001565b73ffffffffffffffffffffffffffffffffffffffff1673ffffffffffffffffffffffffffffffffffffffff1681526020019081526020015f205f81548092919061026b906112df565b91905055505f80856040013590505f86602001602081019061028d9190611001565b90505f878060a001906102a09190611332565b895f0160208101906102b29190611001565b6040516020016102c493929190611407565b60405160208183030381529060405290505f886060013590505f80835160208501878786f195505a9450603f89606001356102ff919061145d565b85101561030857fe5b50505050509392505050565b5f602052805f5260405f205f915090505481565b5f6060805f805f60607f0f00000000000000000000000000000000000000000000000000000000000000965061035c610674565b809650819750505046935030925090919293949596565b5f7ef4342dc5717c026bb2c6c0b7f2bb901ac7e1f5415d0dcb7af4d51a418980d1905090565b5f6103a26106eb565b905090565b348360400135146103e4576040517faa7feadc00000000000000000000000000000000000000000000000000000000815260040160405180910390fd5b8260c00135421115610422576040517f1c389a0d00000000000000000000000000000000000000000000000000000000815260040160405180910390fd5b82608001355f80855f01602081019061043b9190611001565b73ffffffffffffffffffffffffffffffffffffffff1673ffffffffffffffffffffffffffffffffffffffff1681526020019081526020015f2054146104ac576040517f756688fe00000000000000000000000000000000000000000000000000000000815260040160405180910390fd5b3073ffffffffffffffffffffffffffffffffffffffff168360200160208101906104d69190611001565b73ffffffffffffffffffffffffffffffffffffffff16637da0a8776040518163ffffffff1660e01b8152600401602060405180830381865afa15801561051e573d5f803e3d5ffd5b505050506040513d601f19601f8201168201806040525081019061054291906114a1565b73ffffffffffffffffffffffffffffffffffffffff161461058f576040517f82d5d76a00000000000000000000000000000000000000000000000000000000815260040160405180910390fd5b5f6105f66105ad6105a8866105a3906114cc565b610184565b610747565b84848080601f0160208091040260200160405190810160405280939291908181526020018383808284375f81840152601f19601f820116905080830192505050505050506107c3565b9050835f01602081019061060a9190611001565b73ffffffffffffffffffffffffffffffffffffffff168173ffffffffffffffffffffffffffffffffffffffff161461066e576040517f815e1d6400000000000000000000000000000000000000000000000000000000815260040160405180910390fd5b50505050565b6060806040518060400160405280600e81526020017f4261736963466f7277617264657200000000000000000000000000000000000081525091506040518060400160405280600181526020017f310000000000000000000000000000000000000000000000000000000000000081525090509091565b5f6106f46107ed565b15610708576107016107f1565b9050610744565b7f000000000000000000000000000000000000000000000000000000000000000090506107336108b9565b15610743576107406107f1565b90505b5b90565b5f6107506107ed565b156107645761075d6107f1565b90506107a0565b7f0000000000000000000000000000000000000000000000000000000000000000905061078f6108b9565b1561079f5761079c6107f1565b90505b5b6719010000000000005f5280601a5281603a52604260182090505f603a52919050565b5f805f806107d18686610911565b9250925092506107e18282610966565b82935050505092915050565b5f90565b5f806107fb6107ed565b15610829575f8061080a610674565b9150915081805190602001209350808051906020012092505050610870565b7f000000000000000000000000000000000000000000000000000000000000000091507f000000000000000000000000000000000000000000000000000000000000000090505b6040517f8b73c3c69bb8fe3d512ecc4cf759cc79239f7b179b0ffacaa9a75d522b39400f815282602082015281604082015246606082015230608082015260a081209250505090565b5f807f000000000000000000000000000000000000000000000000000000000000000090505f7f0000000000000000000000000000000000000000000000000000000000000000905080301482461416159250505090565b5f805f6041845103610951575f805f602087015192506040870151915060608701515f1a905061094388828585610ac8565b95509550955050505061095f565b5f600285515f1b9250925092505b9250925092565b5f6003811115610979576109786114de565b5b82600381111561098c5761098b6114de565b5b0315610ac457600160038111156109a6576109a56114de565b5b8260038111156109b9576109b86114de565b5b036109f0576040517ff645eedf00000000000000000000000000000000000000000000000000000000815260040160405180910390fd5b60026003811115610a0457610a036114de565b5b826003811115610a1757610a166114de565b5b03610a5b57805f1c6040517ffce698f7000000000000000000000000000000000000000000000000000000008152600401610a52919061103b565b60405180910390fd5b600380811115610a6e57610a6d6114de565b5b826003811115610a8157610a806114de565b5b03610ac357806040517fd78bce0c000000000000000000000000000000000000000000000000000000008152600401610aba9190610ebd565b60405180910390fd5b5b5050565b5f805f7f7fffffffffffffffffffffffffffffff5d576e7357a4501ddfe92f46681b20a0845f1c1115610b04575f600385925092509250610ba5565b5f6001888888886040515f8152602001604052604051610b279493929190611526565b6020604051602081039080840390855afa158015610b47573d5f803e3d5ffd5b5050506020604051035190505f73ffffffffffffffffffffffffffffffffffffffff168173ffffffffffffffffffffffffffffffffffffffff1603610b98575f60015f801b93509350935050610ba5565b805f805f1b935093509350505b9450945094915050565b5f604051905090565b5f80fd5b5f80fd5b5f80fd5b5f601f19601f8301169050919050565b7f4e487b71000000000000000000000000000000000000000000000000000000005f52604160045260245ffd5b610c0a82610bc4565b810181811067ffffffffffffffff82111715610c2957610c28610bd4565b5b80604052505050565b5f610c3b610baf565b9050610c478282610c01565b919050565b5f80fd5b5f73ffffffffffffffffffffffffffffffffffffffff82169050919050565b5f610c7982610c50565b9050919050565b610c8981610c6f565b8114610c93575f80fd5b50565b5f81359050610ca481610c80565b92915050565b5f819050919050565b610cbc81610caa565b8114610cc6575f80fd5b50565b5f81359050610cd781610cb3565b92915050565b5f80fd5b5f80fd5b5f67ffffffffffffffff821115610cff57610cfe610bd4565b5b610d0882610bc4565b9050602081019050919050565b828183375f83830152505050565b5f610d35610d3084610ce5565b610c32565b905082815260208101848484011115610d5157610d50610ce1565b5b610d5c848285610d15565b509392505050565b5f82601f830112610d7857610d77610cdd565b5b8135610d88848260208601610d23565b91505092915050565b5f60e08284031215610da657610da5610bc0565b5b610db060e0610c32565b90505f610dbf84828501610c96565b5f830152506020610dd284828501610c96565b6020830152506040610de684828501610cc9565b6040830152506060610dfa84828501610cc9565b6060830152506080610e0e84828501610cc9565b60808301525060a082013567ffffffffffffffff811115610e3257610e31610c4c565b5b610e3e84828501610d64565b60a08301525060c0610e5284828501610cc9565b60c08301525092915050565b5f60208284031215610e7357610e72610bb8565b5b5f82013567ffffffffffffffff811115610e9057610e8f610bbc565b5b610e9c84828501610d91565b91505092915050565b5f819050919050565b610eb781610ea5565b82525050565b5f602082019050610ed05f830184610eae565b92915050565b5f80fd5b5f60e08284031215610eef57610eee610ed6565b5b81905092915050565b5f80fd5b5f80fd5b5f8083601f840112610f1557610f14610cdd565b5b8235905067ffffffffffffffff811115610f3257610f31610ef8565b5b602083019150836001820283011115610f4e57610f4d610efc565b5b9250929050565b5f805f60408486031215610f6c57610f6b610bb8565b5b5f84013567ffffffffffffffff811115610f8957610f88610bbc565b5b610f9586828701610eda565b935050602084013567ffffffffffffffff811115610fb657610fb5610bbc565b5b610fc286828701610f00565b92509250509250925092565b5f8115159050919050565b610fe281610fce565b82525050565b5f602082019050610ffb5f830184610fd9565b92915050565b5f6020828403121561101657611015610bb8565b5b5f61102384828501610c96565b91505092915050565b61103581610caa565b82525050565b5f60208201905061104e5f83018461102c565b92915050565b5f7fff0000000000000000000000000000000000000000000000000000000000000082169050919050565b61108881611054565b82525050565b5f81519050919050565b5f82825260208201905092915050565b8281835e5f83830152505050565b5f6110c08261108e565b6110ca8185611098565b93506110da8185602086016110a8565b6110e381610bc4565b840191505092915050565b6110f781610c6f565b82525050565b5f81519050919050565b5f82825260208201905092915050565b5f819050602082019050919050565b61112f81610caa565b82525050565b5f6111408383611126565b60208301905092915050565b5f602082019050919050565b5f611162826110fd565b61116c8185611107565b935061117783611117565b805f5b838110156111a757815161118e8882611135565b97506111998361114c565b92505060018101905061117a565b5085935050505092915050565b5f60e0820190506111c75f83018a61107f565b81810360208301526111d981896110b6565b905081810360408301526111ed81886110b6565b90506111fc606083018761102c565b61120960808301866110ee565b61121660a0830185610eae565b81810360c08301526112288184611158565b905098975050505050505050565b5f6101008201905061124a5f83018b610eae565b611257602083018a6110ee565b61126460408301896110ee565b611271606083018861102c565b61127e608083018761102c565b61128b60a083018661102c565b61129860c0830185610eae565b6112a560e083018461102c565b9998505050505050505050565b7f4e487b71000000000000000000000000000000000000000000000000000000005f52601160045260245ffd5b5f6112e982610caa565b91507fffffffffffffffffffffffffffffffffffffffffffffffffffffffffffffffff820361131b5761131a6112b2565b5b600182019050919050565b5f80fd5b5f80fd5b5f80fd5b5f808335600160200384360303811261134e5761134d611326565b5b80840192508235915067ffffffffffffffff8211156113705761136f61132a565b5b60208301925060018202360383131561138c5761138b61132e565b5b509250929050565b5f81905092915050565b5f6113a98385611394565b93506113b6838584610d15565b82840190509392505050565b5f8160601b9050919050565b5f6113d8826113c2565b9050919050565b5f6113e9826113ce565b9050919050565b6114016113fc82610c6f565b6113df565b82525050565b5f61141382858761139e565b915061141f82846113f0565b601482019150819050949350505050565b7f4e487b71000000000000000000000000000000000000000000000000000000005f52601260045260245ffd5b5f61146782610caa565b915061147283610caa565b92508261148257611481611430565b5b828204905092915050565b5f8151905061149b81610c80565b92915050565b5f602082840312156114b6576114b5610bb8565b5b5f6114c38482850161148d565b91505092915050565b5f6114d73683610d91565b9050919050565b7f4e487b71000000000000000000000000000000000000000000000000000000005f52602160045260245ffd5b5f60ff82169050919050565b6115208161150b565b82525050565b5f6080820190506115395f830187610eae565b6115466020830186611517565b6115536040830185610eae565b6115606060830184610eae565b9594505050505056fea2646970667358221220b91204e26b300d94ca8a39072f76239d260813bbe708f0312709384d7383aec664736f6c63430008190033","linkReferences":{}},"methodIdentifiers":{"domainSeparator()":"f698da25","eip712Domain()":"84b0196e","execute((address,address,uint256,uint256,uint256,bytes,uint256),bytes)":"44d46c8e","getDataHash((address,address,uint256,uint256,uint256,bytes,uint256))":"014010b7","getRequestTypehash()":"84d3a82d","nonces(address)":"7ecebe00"},"id":10}