{"abi":[{"type":"constructor","inputs":[{"name":"_pool","type":"address","internalType":"address"}],"stateMutability":"nonpayable"},{"type":"function","name":"onFlashLoan","inputs":[{"name":"","type":"address","internalType":"address"},{"name":"token","type":"address","internalType":"address"},{"name":"amount","type":"uint256","internalType":"uint256"},{"name":"fee","type":"uint256","internalType":"uint256"},{"name":"","type":"bytes","internalType":"bytes"}],"outputs":[{"name":"","type":"bytes32","internalType":"bytes32"}],"stateMutability":"nonpayable"},{"type":"error","name":"UnsupportedCurrency","inputs":[]}],"bytecode":{"object":"0x608060405234801561000f575f80fd5b50604051610657380380610657833981810160405281019061003191906100d4565b805f806101000a81548173ffffffffffffffffffffffffffffffffffffffff021916908373ffffffffffffffffffffffffffffffffffffffff160217905550506100ff565b5f80fd5b5f73ffffffffffffffffffffffffffffffffffffffff82169050919050565b5f6100a38261007a565b9050919050565b6100b381610099565b81146100bd575f80fd5b50565b5f815190506100ce816100aa565b92915050565b5f602082840312156100e9576100e8610076565b5b5f6100f6848285016100c0565b91505092915050565b61054b8061010c5f395ff3fe608060405234801561000f575f80fd5b5060043610610029575f3560e01c806323e30c8b1461002d575b5f80fd5b61004760048036038101906100429190610332565b61005d565b60405161005491906103e0565b60405180910390f35b5f335f5414610073576348f5c3ed5f526004601cfd5b5f8054906101000a900473ffffffffffffffffffffffffffffffffffffffff1673ffffffffffffffffffffffffffffffffffffffff16633fc8cef36040518163ffffffff1660e01b8152600401602060405180830381865afa1580156100db573d5f803e3d5ffd5b505050506040513d601f19601f820116820180604052508101906100ff9190610445565b73ffffffffffffffffffffffffffffffffffffffff168673ffffffffffffffffffffffffffffffffffffffff1614610163576040517f2263f4e200000000000000000000000000000000000000000000000000000000815260040160405180910390fd5b5f848601905061017161023a565b8673ffffffffffffffffffffffffffffffffffffffff1663095ea7b35f8054906101000a900473ffffffffffffffffffffffffffffffffffffffff16836040518363ffffffff1660e01b81526004016101cb92919061048e565b6020604051808303815f875af11580156101e7573d5f803e3d5ffd5b505050506040513d601f19601f8201168201806040525081019061020b91906104ea565b507f439148f0bbc682ca079e46d6e2c2f0c1e3b820f1a291b069d8882abf8cf18dd99150509695505050505050565b565b5f80fd5b5f80fd5b5f73ffffffffffffffffffffffffffffffffffffffff82169050919050565b5f61026d82610244565b9050919050565b61027d81610263565b8114610287575f80fd5b50565b5f8135905061029881610274565b92915050565b5f819050919050565b6102b08161029e565b81146102ba575f80fd5b50565b5f813590506102cb816102a7565b92915050565b5f80fd5b5f80fd5b5f80fd5b5f8083601f8401126102f2576102f16102d1565b5b8235905067ffffffffffffffff81111561030f5761030e6102d5565b5b60208301915083600182028301111561032b5761032a6102d9565b5b9250929050565b5f805f805f8060a0878903121561034c5761034b61023c565b5b5f61035989828a0161028a565b965050602061036a89828a0161028a565b955050604061037b89828a016102bd565b945050606061038c89828a016102bd565b935050608087013567ffffffffffffffff8111156103ad576103ac610240565b5b6103b989828a016102dd565b92509250509295509295509295565b5f819050919050565b6103da816103c8565b82525050565b5f6020820190506103f35f8301846103d1565b92915050565b5f61040382610244565b9050919050565b5f610414826103f9565b9050919050565b6104248161040a565b811461042e575f80fd5b50565b5f8151905061043f8161041b565b92915050565b5f6020828403121561045a5761045961023c565b5b5f61046784828501610431565b91505092915050565b61047981610263565b82525050565b6104888161029e565b82525050565b5f6040820190506104a15f830185610470565b6104ae602083018461047f565b9392505050565b5f8115159050919050565b6104c9816104b5565b81146104d3575f80fd5b50565b5f815190506104e4816104c0565b92915050565b5f602082840312156104ff576104fe61023c565b5b5f61050c848285016104d6565b9150509291505056fea26469706673582212208607e8c529f900f20d53f37024eed5bf95434ce3ad4bed837d38373d8340d33964736f6c63430008190033","linkReferences":{}},"methodIdentifiers":{"onFlashLoan(address,address,uint256,uint256,bytes)":"23e30c8b"},"id":27}